{
  "contractName": "Gambling",
  "abi": [
    {
      "inputs": [
        {
          "name": "_minimumBet",
          "type": "uint256"
        }
      ],
      "payable": false,
      "stateMutability": "nonpayable",
      "type": "constructor"
    },
    {
      "payable": true,
      "stateMutability": "payable",
      "type": "fallback"
    },
    {
      "constant": false,
      "inputs": [
        {
          "name": "number",
          "type": "uint256"
        }
      ],
      "name": "bet",
      "outputs": [],
      "payable": true,
      "stateMutability": "payable",
      "type": "function"
    },
    {
      "constant": false,
      "inputs": [],
      "name": "generateNumberWinner",
      "outputs": [],
      "payable": false,
      "stateMutability": "nonpayable",
      "type": "function"
    },
    {
      "constant": false,
      "inputs": [
        {
          "name": "numberWinner",
          "type": "uint256"
        }
      ],
      "name": "distributePrizes",
      "outputs": [],
      "payable": false,
      "stateMutability": "nonpayable",
      "type": "function"
    },
    {
      "constant": false,
      "inputs": [],
      "name": "resetData",
      "outputs": [],
      "payable": false,
      "stateMutability": "nonpayable",
      "type": "function"
    },
    {
      "constant": false,
      "inputs": [
        {
          "name": "player",
          "type": "address"
        }
      ],
      "name": "checkPlayerExists",
      "outputs": [
        {
          "name": "",
          "type": "bool"
        }
      ],
      "payable": false,
      "stateMutability": "nonpayable",
      "type": "function"
    },
    {
      "constant": false,
      "inputs": [],
      "name": "kill",
      "outputs": [],
      "payable": false,
      "stateMutability": "nonpayable",
      "type": "function"
    }
  ],
  "bytecode": "0x60606040526064600455341561001457600080fd5b6040516020806107e283398101604052808051906020019091905050336000806101000a81548173ffffffffffffffffffffffffffffffffffffffff021916908373ffffffffffffffffffffffffffffffffffffffff16021790555060008114151561008257806001819055505b50610750806100926000396000f300606060405260043610610078576000357c0100000000000000000000000000000000000000000000000000000000900463ffffffff1680630a50e3611461007a5780634081d9161461008f57806341c0e1b5146100e0578063478c4e0e146100f55780636ca3fc3b1461010a5780637365870b1461012d575b005b341561008557600080fd5b61008d610145565b005b341561009a57600080fd5b6100c6600480803573ffffffffffffffffffffffffffffffffffffffff16906020019091905050610165565b604051808215151515815260200191505060405180910390f35b34156100eb57600080fd5b6100f3610209565b005b341561010057600080fd5b61010861029a565b005b341561011557600080fd5b61012b60048080359060200190919050506102bc565b005b61014360048080359060200190919050506104fd565b005b60006001600a4381151561015557fe5b06019050610162816102bc565b50565b600080600090505b6005805490508110156101fe578273ffffffffffffffffffffffffffffffffffffffff166005828154811015156101a057fe5b906000526020600020900160009054906101000a900473ffffffffffffffffffffffffffffffffffffffff1673ffffffffffffffffffffffffffffffffffffffff1614156101f15760019150610203565b808060010191505061016d565b600091505b50919050565b6000809054906101000a900473ffffffffffffffffffffffffffffffffffffffff1673ffffffffffffffffffffffffffffffffffffffff163373ffffffffffffffffffffffffffffffffffffffff161415610298576000809054906101000a900473ffffffffffffffffffffffffffffffffffffffff1673ffffffffffffffffffffffffffffffffffffffff16ff5b565b60006005816102a99190610668565b5060006002819055506000600381905550565b6102c4610694565b6000806000806000809450600093505b600580549050841015610416576005848154811015156102f057fe5b906000526020600020900160009054906101000a900473ffffffffffffffffffffffffffffffffffffffff16925086600660008573ffffffffffffffffffffffffffffffffffffffff1673ffffffffffffffffffffffffffffffffffffffff1681526020019081526020016000206001015414156103b75782868660648110151561037757fe5b602002019073ffffffffffffffffffffffffffffffffffffffff16908173ffffffffffffffffffffffffffffffffffffffff168152505084806001019550505b600660008473ffffffffffffffffffffffffffffffffffffffff1673ffffffffffffffffffffffffffffffffffffffff1681526020019081526020016000206000808201600090556001820160009055505083806001019450506102d4565b60006005816104259190610668565b50606460025481151561043457fe5b049150600090505b848110156104ec57600073ffffffffffffffffffffffffffffffffffffffff16868260648110151561046a57fe5b602002015173ffffffffffffffffffffffffffffffffffffffff161415156104df57858160648110151561049a57fe5b602002015173ffffffffffffffffffffffffffffffffffffffff166108fc839081150290604051600060405180830381858888f1935050505015156104de57600080fd5b5b808060010191505061043c565b6104f461029a565b50505050505050565b6000151561050a33610165565b151514151561051557fe5b600181101580156105275750600a8111155b151561052f57fe5b600154341015151561053d57fe5b34600660003373ffffffffffffffffffffffffffffffffffffffff1673ffffffffffffffffffffffffffffffffffffffff1681526020019081526020016000206000018190555080600660003373ffffffffffffffffffffffffffffffffffffffff1673ffffffffffffffffffffffffffffffffffffffff168152602001908152602001600020600101819055506001600360008282540192505081905550600580548060010182816105f091906106d3565b9160005260206000209001600033909190916101000a81548173ffffffffffffffffffffffffffffffffffffffff021916908373ffffffffffffffffffffffffffffffffffffffff160217905550503460026000828254019250508190555060045460035410151561066557610664610145565b5b50565b81548183558181151161068f5781836000526020600020918201910161068e91906106ff565b5b505050565b610c80604051908101604052806064905b600073ffffffffffffffffffffffffffffffffffffffff168152602001906001900390816106a55790505090565b8154818355818115116106fa578183600052602060002091820191016106f991906106ff565b5b505050565b61072191905b8082111561071d576000816000905550600101610705565b5090565b905600a165627a7a72305820e4c3750ca5fc27a791d78d06facdafa40242a9f7fec24a9a00a3b8ce4071b4f00029",
  "source": "pragma solidity ^0.4.11;\n\ncontract Gambling {\n    address owner;\n    uint minimumBet;\n    uint totalBet;\n    uint numberOfBets;\n    uint maxAmountOfBets = 100;\n    address[] players;\n\n    struct Player {\n        uint amountBet;\n        uint numberSelected;\n    }\n\n    mapping(address => Player) playerInfo;\n\n    function Gambling(uint _minimumBet) {\n        owner = msg.sender;\n        if (_minimumBet != 0)\n            minimumBet = _minimumBet;\n    }\n\n    // To bet for a number between 1 and 10 both inclusive\n    function bet(uint number) payable {\n        assert(checkPlayerExists(msg.sender) == false);\n        assert(number >= 1 && number <= 10);\n        assert(msg.value >= minimumBet);\n        \n        playerInfo[msg.sender].amountBet = msg.value;\n        playerInfo[msg.sender].numberSelected = number;\n        numberOfBets += 1;\n        players.push(msg.sender);\n        totalBet += msg.value;\n        if (numberOfBets >= maxAmountOfBets) generateNumberWinner();\n\n    }\n\n    // Generates a number between 1 and 10\n    function generateNumberWinner() {\n        uint numberGenerated = block.number % 10 + 1; // This isn't secure\n        distributePrizes(numberGenerated);\n    }\n\n    // Sends the corresponding ether to each winner depending on the total bet\n    function distributePrizes(uint numberWinner) {\n        address[100] memory winners; // we have to create a temporary in memory array with fixed size\n        uint count = 0; // This is the count for the array of winners\n\n        for (uint i = 0; i < players.length; i++) {\n            address playerAddress = players[i];\n            if (playerInfo[playerAddress].numberSelected == numberWinner) {\n                winners[count] = playerAddress;\n                count++;\n            }\n            delete playerInfo[playerAddress]; // Delete all players\n        }\n\n        players.length = 0; // Delete all the players array\n\n        uint winnerEtherAmount = totalBet / winners.length; // How much each winner gets\n        for (uint j = 0; j < count; j++) {\n            if (winners[j] != address(0)) // Check that the address in this fixed array is not empty\n                winners[j].transfer(winnerEtherAmount);\n        }\n        resetData();\n    }\n    \n    function resetData() {\n        players.length = 0; // Delete all the players array\n        totalBet = 0;\n        numberOfBets = 0;\n    }\n    // Fallback function in case someone send ether to the contract so it doesn't get lost\n    function () payable {}\n\n    function checkPlayerExists(address player) returns (bool) {\n        for (uint i = 0; i < players.length; i++) {\n            if (players[i] == player)\n                return true;\n        }\n        return false;\n    }\n\n    function kill() {\n        if(msg.sender == owner)\n            selfdestruct(owner);\n    }\n}",
  "sourcePath": "/Users/shubhambansal/Documents/gambling-den/contracts/Gambling.sol",
  "compiler": {
    "name": "solc",
    "version": "0.4.19+commit.c4cbbb05.Emscripten.clang"
  },
  "schemaVersion": "1.0.1",
  "updatedAt": "2018-02-01T22:13:23.732Z"
}